{
  "contractName": "MyStringStore",
  "abi": [
    {
      "constant": true,
      "inputs": [
        {
          "name": "",
          "type": "uint256"
        }
      ],
      "name": "users",
      "outputs": [
        {
          "name": "",
          "type": "address"
        }
      ],
      "payable": false,
      "stateMutability": "view",
      "type": "function"
    },
    {
      "constant": false,
      "inputs": [
        {
          "name": "_user",
          "type": "address"
        }
      ],
      "name": "setUser",
      "outputs": [],
      "payable": false,
      "stateMutability": "nonpayable",
      "type": "function"
    },
    {
      "constant": false,
      "inputs": [],
      "name": "getUsers",
      "outputs": [
        {
          "name": "",
          "type": "address[]"
        }
      ],
      "payable": false,
      "stateMutability": "nonpayable",
      "type": "function"
    }
  ],
  "bytecode": "0x608060405234801561001057600080fd5b50610237806100206000396000f3fe608060405234801561001057600080fd5b50600436106100405760003560e01c8062ce8e3e14610045578063365b98b2146100a4578063858ced3514610112575b600080fd5b61004d610156565b6040518080602001828103825283818151815260200191508051906020019060200280838360005b83811015610090578082015181840152602081019050610075565b505050509050019250505060405180910390f35b6100d0600480360360208110156100ba57600080fd5b810190808035906020019092919050505061015b565b604051808273ffffffffffffffffffffffffffffffffffffffff1673ffffffffffffffffffffffffffffffffffffffff16815260200191505060405180910390f35b6101546004803603602081101561012857600080fd5b81019080803573ffffffffffffffffffffffffffffffffffffffff169060200190929190505050610197565b005b606090565b6000818154811061016857fe5b906000526020600020016000915054906101000a900473ffffffffffffffffffffffffffffffffffffffff1681565b6000808290806001815401808255809150509060018203906000526020600020016000909192909190916101000a81548173ffffffffffffffffffffffffffffffffffffffff021916908373ffffffffffffffffffffffffffffffffffffffff16021790555090508080600101915050505056fea165627a7a72305820cfc77ce1cae0f9bc0ee663b4fee8e03f80244b87d7d5cefc4acbc367f1476eed0029",
  "source": "pragma solidity ^0.5.0;\n\n// contract Adoption {\n// \taddress[16] public adopters;\n\n// \t// Adopting a pet\n// \tfunction adopt(uint petId) public returns (uint) {\n//  \t \trequire(petId >= 0 && petId <= 15);\n\n// \t  \tadopters[petId] = msg.sender;\n\n//   \t\treturn petId;\n// \t}\n\n// \t// Retrieving the adopters\n// \tfunction getAdopters() public view returns (address[16] memory) {\n// \t\treturn adopters;\n// \t}\n// }\n\ncontract MyStringStore {\n    address[] public users;\n\n    // mapping (address => User) addressUserMapping;\n\n    function setUser(address _user) public{\n        uint id = users.push(_user);\n        id++;\n    }\n\n    function getUsers() public returns(address[] memory) {\n        \n    }\n}\n",
  "sourcePath": "/home/nimish/SmartContractDemo/pet-shop-tutorial/contracts/Adoption.sol",
  "compiler": {
    "name": "solc",
    "version": "0.5.8+commit.23d335f2.Emscripten.clang"
  },
  "schemaVersion": "3.0.16",
  "updatedAt": "2019-10-11T10:18:45.637Z",
  "devdoc": {
    "methods": {}
  },
  "userdoc": {
    "methods": {}
  }
}