{
  "contractName": "UserRegistration",
  "abi": [
    {
      "constant": true,
      "inputs": [
        {
          "name": "",
          "type": "uint256"
        }
      ],
      "name": "users",
      "outputs": [
        {
          "name": "",
          "type": "address"
        }
      ],
      "payable": false,
      "stateMutability": "view",
      "type": "function"
    },
    {
      "constant": false,
      "inputs": [
        {
          "name": "_user",
          "type": "address"
        }
      ],
      "name": "setUser",
      "outputs": [],
      "payable": false,
      "stateMutability": "nonpayable",
      "type": "function"
    },
    {
      "constant": true,
      "inputs": [],
      "name": "getUsers",
      "outputs": [
        {
          "name": "",
          "type": "address[]"
        }
      ],
      "payable": false,
      "stateMutability": "view",
      "type": "function"
    },
    {
      "constant": true,
      "inputs": [
        {
          "name": "_user",
          "type": "address"
        }
      ],
      "name": "isRegistered",
      "outputs": [
        {
          "name": "",
          "type": "bool"
        }
      ],
      "payable": false,
      "stateMutability": "view",
      "type": "function"
    },
    {
      "constant": false,
      "inputs": [
        {
          "name": "_will",
          "type": "string"
        }
      ],
      "name": "addWill",
      "outputs": [],
      "payable": false,
      "stateMutability": "nonpayable",
      "type": "function"
    },
    {
      "constant": true,
      "inputs": [
        {
          "name": "_user",
          "type": "address"
        }
      ],
      "name": "getWill",
      "outputs": [
        {
          "name": "",
          "type": "string"
        }
      ],
      "payable": false,
      "stateMutability": "view",
      "type": "function"
    }
  ],
  "bytecode": "0x608060405234801561001057600080fd5b50610732806100206000396000f3fe608060405234801561001057600080fd5b50600436106100615760003560e01c8062ce8e3e14610066578063365b98b2146100c5578063858ced3514610133578063ac4e6b0214610177578063c3c5a54714610234578063efd8c98b14610290575b600080fd5b61006e61034b565b6040518080602001828103825283818151815260200191508051906020019060200280838360005b838110156100b1578082015181840152602081019050610096565b505050509050019250505060405180910390f35b6100f1600480360360208110156100db57600080fd5b81019080803590602001909291905050506103d9565b604051808273ffffffffffffffffffffffffffffffffffffffff1673ffffffffffffffffffffffffffffffffffffffff16815260200191505060405180910390f35b6101756004803603602081101561014957600080fd5b81019080803573ffffffffffffffffffffffffffffffffffffffff169060200190929190505050610415565b005b6101b96004803603602081101561018d57600080fd5b81019080803573ffffffffffffffffffffffffffffffffffffffff169060200190929190505050610489565b6040518080602001828103825283818151815260200191508051906020019080838360005b838110156101f95780820151818401526020810190506101de565b50505050905090810190601f1680156102265780820380516001836020036101000a031916815260200191505b509250505060405180910390f35b6102766004803603602081101561024a57600080fd5b81019080803573ffffffffffffffffffffffffffffffffffffffff16906020019092919050505061056a565b604051808215151515815260200191505060405180910390f35b610349600480360360208110156102a657600080fd5b81019080803590602001906401000000008111156102c357600080fd5b8201836020820111156102d557600080fd5b803590602001918460018302840111640100000000831117156102f757600080fd5b91908080601f016020809104026020016040519081016040528093929190818152602001838380828437600081840152601f19601f82011690508083019250505050505050919291929050505061060a565b005b606060008054806020026020016040519081016040528092919081815260200182805480156103cf57602002820191906000526020600020905b8160009054906101000a900473ffffffffffffffffffffffffffffffffffffffff1673ffffffffffffffffffffffffffffffffffffffff1681526020019060010190808311610385575b5050505050905090565b600081815481106103e657fe5b906000526020600020016000915054906101000a900473ffffffffffffffffffffffffffffffffffffffff1681565b6000808290806001815401808255809150509060018203906000526020600020016000909192909190916101000a81548173ffffffffffffffffffffffffffffffffffffffff021916908373ffffffffffffffffffffffffffffffffffffffff160217905550905080806001019150505050565b6060600160008373ffffffffffffffffffffffffffffffffffffffff1673ffffffffffffffffffffffffffffffffffffffff1681526020019081526020016000208054600181600116156101000203166002900480601f01602080910402602001604051908101604052809291908181526020018280546001816001161561010002031660029004801561055e5780601f106105335761010080835404028352916020019161055e565b820191906000526020600020905b81548152906001019060200180831161054157829003601f168201915b50505050509050919050565b600080600090505b6000805490508110156105ff578273ffffffffffffffffffffffffffffffffffffffff16600082815481106105a357fe5b9060005260206000200160009054906101000a900473ffffffffffffffffffffffffffffffffffffffff1673ffffffffffffffffffffffffffffffffffffffff1614156105f4576001915050610605565b806001019050610572565b50600090505b919050565b80600160003373ffffffffffffffffffffffffffffffffffffffff1673ffffffffffffffffffffffffffffffffffffffff168152602001908152602001600020908051906020019061065d929190610661565b5050565b828054600181600116156101000203166002900490600052602060002090601f016020900481019282601f106106a257805160ff19168380011785556106d0565b828001600101855582156106d0579182015b828111156106cf5782518255916020019190600101906106b4565b5b5090506106dd91906106e1565b5090565b61070391905b808211156106ff5760008160009055506001016106e7565b5090565b9056fea165627a7a72305820a1c750bb35776b95abf4fd139885915f2d8718039f83d72a150c20580accd4ab0029",
  "source": "pragma solidity ^0.5.0;\n\ncontract UserRegistration {\n    address[] public users;\n\n    mapping (address => string) addressWillMapping;\n\n    function setUser(address _user) public{\n        uint id = users.push(_user);\n        id++;\n    }\n\n    function getUsers() public view returns(address[] memory) {\n\t\t  return users;\n    }\n\n    function isRegistered(address _user) public view returns(bool) {\n      for(uint i = 0; i < users.length; ++i)\n      {\n        if(users[i] == _user)\n        {\n          return true;\n        }\n      }\n      return false;\n    }\n\n    function addWill(string memory _will) public{\n      addressWillMapping[msg.sender] = _will;\n    }\n\n    function getWill(address _user) public view returns(string memory) {\n      return addressWillMapping[_user];\n    }\n\n}\n\n\n",
  "sourcePath": "/home/nimish/SmartContractDemo/pet-shop-tutorial/contracts/UserRegistration.sol",
  "compiler": {
    "name": "solc",
    "version": "0.5.8+commit.23d335f2.Emscripten.clang"
  },
  "schemaVersion": "3.0.16",
  "updatedAt": "2019-10-11T17:10:40.369Z",
  "devdoc": {
    "methods": {}
  },
  "userdoc": {
    "methods": {}
  }
}