{
  "contractName": "UserRegistration",
  "abi": [
    {
      "constant": true,
      "inputs": [
        {
          "name": "",
          "type": "uint256"
        }
      ],
      "name": "users",
      "outputs": [
        {
          "name": "",
          "type": "address"
        }
      ],
      "payable": false,
      "stateMutability": "view",
      "type": "function"
    },
    {
      "constant": false,
      "inputs": [
        {
          "name": "_user",
          "type": "address"
        }
      ],
      "name": "setUser",
      "outputs": [],
      "payable": false,
      "stateMutability": "nonpayable",
      "type": "function"
    },
    {
      "constant": true,
      "inputs": [],
      "name": "getUsers",
      "outputs": [
        {
          "name": "",
          "type": "address[]"
        }
      ],
      "payable": false,
      "stateMutability": "view",
      "type": "function"
    }
  ],
  "bytecode": "0x608060405234801561001057600080fd5b506102c0806100206000396000f3fe608060405234801561001057600080fd5b50600436106100405760003560e01c8062ce8e3e14610045578063365b98b2146100a4578063858ced3514610112575b600080fd5b61004d610156565b6040518080602001828103825283818151815260200191508051906020019060200280838360005b83811015610090578082015181840152602081019050610075565b505050509050019250505060405180910390f35b6100d0600480360360208110156100ba57600080fd5b81019080803590602001909291905050506101e4565b604051808273ffffffffffffffffffffffffffffffffffffffff1673ffffffffffffffffffffffffffffffffffffffff16815260200191505060405180910390f35b6101546004803603602081101561012857600080fd5b81019080803573ffffffffffffffffffffffffffffffffffffffff169060200190929190505050610220565b005b606060008054806020026020016040519081016040528092919081815260200182805480156101da57602002820191906000526020600020905b8160009054906101000a900473ffffffffffffffffffffffffffffffffffffffff1673ffffffffffffffffffffffffffffffffffffffff1681526020019060010190808311610190575b5050505050905090565b600081815481106101f157fe5b906000526020600020016000915054906101000a900473ffffffffffffffffffffffffffffffffffffffff1681565b6000808290806001815401808255809150509060018203906000526020600020016000909192909190916101000a81548173ffffffffffffffffffffffffffffffffffffffff021916908373ffffffffffffffffffffffffffffffffffffffff16021790555090508080600101915050505056fea165627a7a7230582030e12e9e126833ca854ecabf202bb23639bf8cd89ca1ed101fcd556f5f2842050029",
  "source": "pragma solidity ^0.5.0;\n\ncontract UserRegistration {\n    address[] public users;\n\n    // mapping (address => string) addressWillMapping;\n\n    function setUser(address _user) public{\n        uint id = users.push(_user);\n        id++;\n    }\n\n    function getUsers() public view returns(address[] memory) {\n\t\t  return users;\n    }\n\n\n}\n\n\n",
  "sourcePath": "/home/nimish/SmartContractDemo/pet-shop-tutorial/contracts/UserRegistration.sol",
  "compiler": {
    "name": "solc",
    "version": "0.5.8+commit.23d335f2.Emscripten.clang"
  },
  "schemaVersion": "3.0.16",
  "updatedAt": "2019-10-11T11:19:24.162Z",
  "devdoc": {
    "methods": {}
  },
  "userdoc": {
    "methods": {}
  }
}