{
  "contractName": "UserRegistration",
  "abi": [
    {
      "constant": true,
      "inputs": [
        {
          "name": "",
          "type": "uint256"
        }
      ],
      "name": "users",
      "outputs": [
        {
          "name": "uid",
          "type": "address"
        },
        {
          "name": "lastHeartBeat",
          "type": "uint256"
        },
        {
          "name": "isDead",
          "type": "bool"
        }
      ],
      "payable": false,
      "stateMutability": "view",
      "type": "function"
    },
    {
      "inputs": [],
      "payable": false,
      "stateMutability": "nonpayable",
      "type": "constructor"
    },
    {
      "payable": true,
      "stateMutability": "payable",
      "type": "fallback"
    },
    {
      "anonymous": false,
      "inputs": [
        {
          "indexed": false,
          "name": "heart",
          "type": "uint256"
        }
      ],
      "name": "Test",
      "type": "event"
    },
    {
      "constant": false,
      "inputs": [
        {
          "name": "_user",
          "type": "address"
        },
        {
          "name": "randValue",
          "type": "uint256"
        },
        {
          "name": "value",
          "type": "uint256"
        }
      ],
      "name": "setUser",
      "outputs": [],
      "payable": true,
      "stateMutability": "payable",
      "type": "function"
    },
    {
      "constant": false,
      "inputs": [],
      "name": "retrieveBalance",
      "outputs": [],
      "payable": false,
      "stateMutability": "nonpayable",
      "type": "function"
    },
    {
      "constant": true,
      "inputs": [],
      "name": "getBalance",
      "outputs": [
        {
          "name": "",
          "type": "uint256"
        }
      ],
      "payable": false,
      "stateMutability": "view",
      "type": "function"
    },
    {
      "constant": true,
      "inputs": [
        {
          "name": "_user",
          "type": "address"
        }
      ],
      "name": "isRegistered",
      "outputs": [
        {
          "name": "",
          "type": "bool"
        }
      ],
      "payable": false,
      "stateMutability": "view",
      "type": "function"
    },
    {
      "constant": false,
      "inputs": [
        {
          "name": "_name",
          "type": "string"
        },
        {
          "name": "_ipfs_hash",
          "type": "string"
        }
      ],
      "name": "addWill",
      "outputs": [],
      "payable": false,
      "stateMutability": "nonpayable",
      "type": "function"
    },
    {
      "constant": false,
      "inputs": [
        {
          "name": "value",
          "type": "uint256"
        }
      ],
      "name": "giveHeartbeat",
      "outputs": [],
      "payable": false,
      "stateMutability": "nonpayable",
      "type": "function"
    },
    {
      "constant": false,
      "inputs": [
        {
          "name": "value",
          "type": "uint256"
        }
      ],
      "name": "checkDeath",
      "outputs": [
        {
          "name": "",
          "type": "string"
        }
      ],
      "payable": false,
      "stateMutability": "nonpayable",
      "type": "function"
    }
  ],
  "bytecode": "0x608060405234801561001057600080fd5b5033600160006101000a81548173ffffffffffffffffffffffffffffffffffffffff021916908373ffffffffffffffffffffffffffffffffffffffff160217905550610c36806100616000396000f3fe60806040526004361061007b5760003560e01c8063d07fa3f61161004e578063d07fa3f6146101d9578063d2a518331461028d578063d79bd499146102e5578063ddf80fe4146102fc5761007b565b806309573ab71461007d57806312065fe0146100b8578063365b98b2146100e3578063c3c5a54714610170575b005b34801561008957600080fd5b506100b6600480360360208110156100a057600080fd5b810190808035906020019092919050505061045b565b005b3480156100c457600080fd5b506100cd610517565b6040518082815260200191505060405180910390f35b3480156100ef57600080fd5b5061011c6004803603602081101561010657600080fd5b8101908080359060200190929190505050610536565b604051808473ffffffffffffffffffffffffffffffffffffffff1673ffffffffffffffffffffffffffffffffffffffff16815260200183815260200182151515158152602001935050505060405180910390f35b34801561017c57600080fd5b506101bf6004803603602081101561019357600080fd5b81019080803573ffffffffffffffffffffffffffffffffffffffff16906020019092919050505061059a565b604051808215151515815260200191505060405180910390f35b3480156101e557600080fd5b50610212600480360360208110156101fc57600080fd5b8101908080359060200190929190505050610641565b6040518080602001828103825283818151815260200191508051906020019080838360005b83811015610252578082015181840152602081019050610237565b50505050905090810190601f16801561027f5780820380516001836020036101000a031916815260200191505b509250505060405180910390f35b6102e3600480360360608110156102a357600080fd5b81019080803573ffffffffffffffffffffffffffffffffffffffff169060200190929190803590602001909291908035906020019092919050505061083d565b005b3480156102f157600080fd5b506102fa610997565b005b34801561030857600080fd5b506104596004803603604081101561031f57600080fd5b810190808035906020019064010000000081111561033c57600080fd5b82018360208201111561034e57600080fd5b8035906020019184600183028401116401000000008311171561037057600080fd5b91908080601f016020809104026020016040519081016040528093929190818152602001838380828437600081840152601f19601f820116905080830192505050505050509192919290803590602001906401000000008111156103d357600080fd5b8201836020820111156103e557600080fd5b8035906020019184600183028401116401000000008311171561040757600080fd5b91908080601f016020809104026020016040519081016040528093929190818152602001838380828437600081840152601f19601f820116905080830192505050505050509192919290505050610aba565b005b60008090505b600080549050811015610513573373ffffffffffffffffffffffffffffffffffffffff166000828154811061049257fe5b906000526020600020906003020160000160009054906101000a900473ffffffffffffffffffffffffffffffffffffffff1673ffffffffffffffffffffffffffffffffffffffff1614156105085781600082815481106104ee57fe5b906000526020600020906003020160010181905550610513565b806001019050610461565b5050565b60003073ffffffffffffffffffffffffffffffffffffffff1631905090565b6000818154811061054357fe5b90600052602060002090600302016000915090508060000160009054906101000a900473ffffffffffffffffffffffffffffffffffffffff16908060010154908060020160009054906101000a900460ff16905083565b600080600090505b600080549050811015610636578273ffffffffffffffffffffffffffffffffffffffff16600082815481106105d357fe5b906000526020600020906003020160000160009054906101000a900473ffffffffffffffffffffffffffffffffffffffff1673ffffffffffffffffffffffffffffffffffffffff16141561062b57600191505061063c565b8060010190506105a2565b50600090505b919050565b60606000614e20905060008090505b60008054905081101561082357600015156000828154811061066e57fe5b906000526020600020906003020160020160009054906101000a900460ff1615151480156106bb57508382600083815481106106a657fe5b90600052602060002090600302016001015401105b15610818576001600082815481106106cf57fe5b906000526020600020906003020160020160006101000a81548160ff0219169083151502179055506002600080838154811061070757fe5b906000526020600020906003020160000160009054906101000a900473ffffffffffffffffffffffffffffffffffffffff1673ffffffffffffffffffffffffffffffffffffffff1673ffffffffffffffffffffffffffffffffffffffff1681526020019081526020016000206002018054600181600116156101000203166002900480601f01602080910402602001604051908101604052809291908181526020018280546001816001161561010002031660029004801561080a5780601f106107df5761010080835404028352916020019161080a565b820191906000526020600020905b8154815290600101906020018083116107ed57829003601f168201915b505050505092505050610838565b806001019050610650565b50604051806020016040528060008152509150505b919050565b8034146108b2576040517f08c379a000000000000000000000000000000000000000000000000000000000815260040180806020018281038252601c8152602001807f506c656173652073656e642074686520726571756972656420616d740000000081525060200191505060405180910390fd5b60008060405180606001604052808673ffffffffffffffffffffffffffffffffffffffff168152602001858152602001600015158152509080600181540180825580915050906001820390600052602060002090600302016000909192909190915060008201518160000160006101000a81548173ffffffffffffffffffffffffffffffffffffffff021916908373ffffffffffffffffffffffffffffffffffffffff1602179055506020820151816001015560408201518160020160006101000a81548160ff02191690831515021790555050509050808060010191505050505050565b600160009054906101000a900473ffffffffffffffffffffffffffffffffffffffff1673ffffffffffffffffffffffffffffffffffffffff163373ffffffffffffffffffffffffffffffffffffffff1614610a5a576040517f08c379a000000000000000000000000000000000000000000000000000000000815260040180806020018281038252600b8152602001807f4e6f74206f776e6572212100000000000000000000000000000000000000000081525060200191505060405180910390fd5b3373ffffffffffffffffffffffffffffffffffffffff166108fc3073ffffffffffffffffffffffffffffffffffffffff16319081150290604051600060405180830381858888f19350505050158015610ab7573d6000803e3d6000fd5b50565b6000809050604051806060016040528082815260200184815260200183815250600260003373ffffffffffffffffffffffffffffffffffffffff1673ffffffffffffffffffffffffffffffffffffffff168152602001908152602001600020600082015181600001556020820151816001019080519060200190610b3f929190610b65565b506040820151816002019080519060200190610b5c929190610b65565b50905050505050565b828054600181600116156101000203166002900490600052602060002090601f016020900481019282601f10610ba657805160ff1916838001178555610bd4565b82800160010185558215610bd4579182015b82811115610bd3578251825591602001919060010190610bb8565b5b509050610be19190610be5565b5090565b610c0791905b80821115610c03576000816000905550600101610beb565b5090565b9056fea165627a7a7230582045439a04ec871ce5591408a5f8b099cd8fae0345a7d3348f9e58ac398df7fff10029",
  "source": "pragma solidity ^0.5.0;\n\ncontract UserRegistration {\n\n    event Test (\n      uint heart\n    );\n\n    struct User {\n      address uid;\n      uint lastHeartBeat;\n      bool isDead;\n    }\n\n    modifier onlyOwner() {\n        require(msg.sender == _owner,\"Not owner!!\");\n        _;\n    }\n\n    User[] public users;\n    // uint balance = 0;\n    address payable _owner;\n\n    struct Will {\n      uint id;\n      string name;\n      string ipfs_hash;\n    }\n\n    mapping (address => Will) addressWillMapping;\n\n    constructor() public{\n      _owner = msg.sender;\n    }\n\n    function setUser(address payable _user, uint randValue, uint value) public payable{\n        require(msg.value == value, \"Please send the required amt\");\n        uint id = users.push(User(_user, randValue, false));\n        id++;\n    }\n\n    function retrieveBalance() external onlyOwner{\n      msg.sender.transfer(address(this).balance);\n    }\n\n    function getBalance() public view returns(uint){\n      return address(this).balance;\n    }\n\n    function isRegistered(address _user) public view returns(bool) {\n      for(uint i = 0; i < users.length; ++i)\n      {\n        if(users[i].uid == _user)\n        {\n          return true;\n        }\n      }\n      return false;\n    }\n\n    function addWill(string memory _name, string memory _ipfs_hash) public{\n      uint id = 0;\n      addressWillMapping[msg.sender] = Will(id, _name, _ipfs_hash);\n    }\n\n    // function getWill(address _user, uint _id) public view returns(string memory) {\n    //   for(uint i = 0; i<addressWillMapping[_user].length; ++i) {\n    //     if(addressWillMapping[_user][i].id == _id)\n    //       return addressWillMapping[_user][i].ipfs_hash;\n    //   }\n    // }\n\n    function giveHeartbeat(uint value) public{\n      for(uint i = 0; i < users.length; ++i) {\n        if(users[i].uid == msg.sender)\n        {\n          users[i].lastHeartBeat = value;\n          break;\n        }\n      }\n    }\n\n    function checkDeath(uint value) public returns(string memory){\n      uint duration = 20000;\n        for(uint i = 0; i < users.length; ++i) {\n          if(users[i].isDead == false && uint(users[i].lastHeartBeat + duration) < value)\n          {\n            users[i].isDead = true;\n            return addressWillMapping[users[i].uid].ipfs_hash;\n          }\n      }\n      return \"\";\n    }\n\n    function() external payable {}\n\n}\n\n\n",
  "sourcePath": "/home/aditya/Documents/Projects/null_ptr_execp/contracts/UserRegistration.sol",
  "compiler": {
    "name": "solc",
    "version": "0.5.8+commit.23d335f2.Emscripten.clang"
  },
  "schemaVersion": "3.0.16",
  "updatedAt": "2019-10-12T08:49:17.109Z",
  "devdoc": {
    "methods": {}
  },
  "userdoc": {
    "methods": {}
  }
}